15:22:53.925167 00:e0:81:48:14:15 > 00:0a:cd:09:20:26, ethertype IPv4 (0x0800), length 60: (tos 0x0, ttl 64, id 0, offset 0, flags [DF], proto UDP (17), length 29) 192.168.222.2.35457 > 192.168.222.1.48879: UDP, length 1
        0x0000:  000a cd09 2026 00e0 8148 1415 0800 4500  .....&...H....E.
        0x0010:  001d 0000 4000 4011 fd7a c0a8 de02 c0a8  ....@.@..z......
        0x0020:  de01 8a81 beef 0009 3815 4100 0000 0000  ........8.A.....
        0x0030:  0000 0000 0000 0000 0000 0000            ............
